:400000000080002011000000E10C0000E10C000008B5044B1A6803F53F5302331A6000F07FFE00BFFA46004010B5054C237833B9044B13B10448AFF300800123237010BD20
:40004000F08CFF1F0000000010440000084B10B51BB108490848AFF300800848036803B910BD074B002BFBD0BDE81040184700BF00000000F48CFF1F10440000C880FF1FF4
:4000800000000000F8B50E461F464FF08045114603F04EFA294600F017F904463946304603F046FA294600F00FF905462946204603F040FA01F060FCF8BD00BF2DE9F8439D
:4000C00080460F460024174EA14612E0164A02EBC4035B6852F8342039464046FFF7D2FF05460146304603F0E9FC08B12E46A1460134052CEADD0C4C54F83910404603F0BB
:4001000017FA0A4D286004EBC909D9F80410384603F00EFA6860064BC3F800805F60BDE8F88300BF00401C46CC80FF1F808DFF1F708DFF1F2DE9F041ACB000F013FF5A4825
:4001400000F038FF00F076FE01F0DCF962B6574B574A5A611A66C3F8AC2000221A60DA64C3F89820002000F09DFE002000F08EFE002000F0A3FE00231193CDF847300F9327
:40018000CDF83F300D93CDF837300B93CDF82F300993CDF8273006930793ADF8203003930493ADF8143041F2883000F021FF01F001FA404B93F83030002BFAD04FF00008EE
:4001C0003C4D032206A9686B00F098F8032203A9A86B00F093F8384C03220DA9E06800F08DF803220BA9206900F088F8032209A9606900F083F811AE03223146E06D00F05F
:400200007DF80FAF03223946206E00F077F8019700960BAB0DAA294913A803F0D5FC13A800F022FE216EE06DFFF748FF95F83030ABB1234D2968084603F07CF9206068683A
:40024000014603F077F9606001F0B4F91E2000F0CFFE01F0D3F90022164B83F830201648144A936B526B016EC06DFFF70BFF4FF07E5103F005FC78B1B8F1000F10D10D4943
:40028000104A4A634FF080438B630B48016EC06DFFF7F8FE4FF001081E2000F0A9FE8FE700202CB0BDE8F081C9090000888BFF1F8FC2753CCC80FF1F1081FF1F184400004D
:4002C000788DFF1F0000A04038B504460D464FF07E51284603F0CAFB68B94FF07E51284603F026F901462046FFF7EEFF0146204603F028FA38BD204638BD00BFF8B5054635
:400300000E46174603F0FAFB04460021284603F0D5FB40B1204603F0C1F90146284603F007F9054606E0204603F0B8F9294603F0FFF80546384603F0ADF901460748FFF75A
:40034000C3FF0146284603F0FDF903F0D7FB034622460349304603F037FCF8BD0000204128440000000000002DE9F04F93B00446036C0893426C0A92866CC56C416D0C9199
:40038000D0F858A0D0F80C80D0F810B04769D0F82490D0F828E0CDF818E0D0F82CC0CDF83CC0406E02F05AFDCDE9020101F0CCF9CDE900014146304603F0C4F98046494654
:4003C000284603F0BFF90146404603F0B3F802F045FD02460B46CDE90423DDE9000102F091FD80468946504602F038FD02460B46CDE910234046494602F0AEFE804689466C
:40040000DDE9020101F070FACDE902015946304603F098F906460699284603F093F90146304603F087F802F019FD05460E46CDE9065602460B46DDE9020102F063FDDDE90C
:40044000102302F089FE02460B464046494602F0A7FB804689463946089803F073F905460F990A9803F06EF90146284603F062F801460C9803F066F9514603F017FA02F0C0
:40048000EDFCCDE9080102460B464046494602F085FB02F0F9FF054600225F4BDDE9020102F030FD06460F4659A3D3E90023DDE9000102F027FD0A460146CDE90C1213466E
:4004C0000246CDE90A673046394602F067FB50A3D3E9002302F016FD02460B46DDE9040102F010FD06460F464C49504603F02AF902F0B4FC8046894602460B463046394663
:4005000002F02AFEDDE9082302F048FB82468B460022414BDDE9000102F0F4FC06460F463BA3D3E90023DDE9020102F0EBFC0A460146CDE90012134602463046394602F0A4
:400540002FFB33A3D3E9002302F0DCFC02460B46DDE9060102F0D6FC42464B4602F0FCFD02460B465046594602F018FB02F08CFF8246DDE900233046394602F00FFB24A3EB
:40058000D3E9002302F0BEFC02460B46DDE9060102F0B8FC42464B4602F0DEFD06460F46DDE90C23DDE90A0102F0FAFA18A3D3E9002302F0A7FC02460B46DDE9040102F0EC
:4005C000A1FC42464B4602F0C7FD02460B463046394602F0E3FADDE9082302F0DFFA02F053FFC4F88050C4F8A0A0C4F8C0002563C4F834A0A0630A4B1D60C3F84CA0A26B8D
:40060000C3F8982013B0BDE8F08F00BFAFF30080AA4C58E87AB6FB3F000008400000C040888BFF1F000000002DE9F04F91B00446856DD0F85480D0F830A0D0F83490D0F80C
:4006400038B0466E484602F009FCCDE90601284602F004FCCDE90001304602F0FFFB06460F4601F071F8CDE9020102460B46DDE9000102F047FC0022674B02F06DFDCDE9F4
:400680000A0163A3D3E90023DDE9000102F03AFCCDE90C013046394601F026F9CDE9040102460B46DDE90C0102F02CFC00225A4B02F052FD06460F4602460B46DDE90A013F
:4006C00002F06CFA02460B46DDE9060102F01AFCCDE90E01584602F0C1FBCDE9080132463B46DDE90A0102F05BFA02460B46DDE9080102F007FC02460B46DDE90E0102F096
:400700004FFA06460F462946284602F013FF0146504603F017F802F0A1FBCDE90A0102460B46DDE9020102F0EDFB00223A4B02F013FD02460B463046394602F02FFA02F040
:40074000A3FEA066DDE90423DDE9000102F0DAFB0022314B02F000FDCDE90001DDE90C23DDE9020102F0CEFB00222B4B02F0F4FC06460F4602460B46DDE9000102F010FA23
:4007800002460B46DDE9060102F0BCFBCDE9020132463B46DDE9000102F000FA02460B46DDE9080102F0AEFB02460B46DDE9020102F0F6F906460F46DDE90A23DDE9040120
:4007C00002F0A0FB0022144B02F0C6FC02460B463046394602F0E2F902F056FEE0664946504602F0A7FE0146584602F0A3FE0146284602F0A7FF05460849404602F0A2FF1A
:400800000146284603F052F8206711B0BDE8F08FAA4C58E87AB6FB3F00000840000040402DE9F84F604CA26E604B1A60E26E604B1A60226F5F4B1A602046FFF7F5FEA16E2C
:40084000E06D02F077FEE065E16E206E02F072FE2066616E206F02F06DFE02F0FFFA4EA3D3E9002302F078FC02F00EFE0446524B1860002103F004F940B104F100444E4BAD
:400880001C604E4A484BC3F8E02004E04FF07E52454BC3F8E020484B186802F0DFFA04460D4600F099FF02460B462046294602F075F902F0E9FD0146414B186002F03AFE7A
:4008C00002F0CCFA36A3D3E9002302F01BFB06460F46354CD4F8E00002F0C0FA32463B4602F010FB02F0D0FD05466066D4F80CA0C4F818A0D4F81080C4F81C806669266249
:40090000A16E206802F014FE00F1004BC4F80CB0E16E606802F00CFE00F10049C4F810902946A06802F004FE00F1004767614FF07C51206D02F006FF05465946504602F052
:40094000F9FD0146284602F0FDFE0146606A02F0F1FD60624946404602F0ECFD0146284602F0F0FE0146A06A02F0E4FDA0623946304602F0DFFD0146284602F0E3FE0146EF
:40098000E06A02F0D7FDE0622046FFF7EDFCBDE8F88F00BFAFF30080182D4454FB211940182D4454FB2109401081FF1FC48DFF1F5C8EFF1F4C8EFF1F488EFF1F000080BFAE
:4009C000C88DFF1F0000000038B500F091FA144C206802F043FA10A3D3E9002302F0E0F802F052FD2060FFF71BFF0E4D24682146286802F0A7FE0C4B196802F09BFD0B4BAB
:400A000018606968204602F09DFE094B196802F091FD084B186038BDEC51B81E85EBB13F188DFF1F1081FF1F208DFF1F148DFF1F1C8DFF1F108DFF1FFEE700BFF0B400220A
:400A4000174611E050F82760F3B226F0FF0608E001EB420511F812406D78A5550132013BDBB2002BF4D10137262FEBD9F0BC7047064B1B78DBB203F00701054A11701B0944
:400A8000013213704422034B1A707047CF0100496E5800407658004008B50A46002103F08AF808BD38B50024294B1C801B2202331A7002331C80192502331D704FF49C72B7
:400AC00002331A80182202331A70022203F276231A7008224FF040231A70032103F5007319701C4B1B78DBB21B490B701B4B1A8041F25122023B1A800CE0194B1B7803F0CB
:400B0000010343EA440404F003044FF4F07000F0F7FD013D0DB1032CEFD115B90320FFF78BFF104B4FF480721A8007221A7000220D490A704820023108701A700222033B90
:400B40001A700A4A137843F00703137038BD00BF8040004008010049A146004022420040254200400440004006400040A243004008B503F015F808BD38B572B6404A1378F9
:400B800043F00403137000240CE03E4D630019194A0011462A44084691882858FFF77CFF0134E4B2062CF0D900240BE03548A20011194B0003449A8E196BD86AFFF7D8FF76
:400BC0000134E4B2012CF1D92F494FF09040FFF735FF2E4A2E4B1A602E4B2F4A136002F54062136002F564522B32137843F0020313701032137843F002031370274C2378C0
:400C000043F040032370A2F58632513A137843F010031370082222492248FFF7A9FF0A2221492248FFF7A4FF082221492148FFF79FFF082220492148FFF79AFF0822204998
:400C40002048FFF795FF08221F492048FFF790FF1F4A137843F0080313701E4D61232B70FFF720FF81232B7001221B4B1A70FFF7FFFE0E2221461948FFF77AFF38BD00BF4F
:400C8000E8460040304400009C000048040404C45802014004040484D80A0140A04300406C1000480251004074100048C051004080100048F25100408810004812510040DB
:400CC00090100048225100409810004832510040224300400048004004000840B043004008B502F031FF03680C2B00D1FEE7FEE708B5094B1A681044084BC31A802B02DC3E
:400D0000054B186005E002F01FFF0C2303604FF0FF32104608BD00BF748CFF1F708EFF1F08B5104E104D16E029686B68AC68002204E051F8040B43F8040B0432A242F8D16F
:400D4000E868002203E0002143F8041B04328242F9D11035013E002EE6D102F0FBFEFFF7E9F9FEE7010000000C48000008B5104A104B1A60104A136843F400731360002378
:400D80000AE0032B03D80D4A52F8231000E00C490C4A42F8231001332F2BF2D90A4B1A780A4B1A70074A0A4B1A60FFF7E5FE08BD0004FA050CED00E014ED00E000000000DA
:400DC000E10C00000080FF1FBC760040C080FF1F08ED00E07222074B1A700023064A137006216A3A117047211032117057321370704700BF8A6500408A64004010B500F052
:400E000087FC04460A4A137843F020031370A2F58072137843F010031370033A137843F01003137000F0D4F8204600F075FC10BD9A65004008B5054B1B7823B9FFF7CAFFF5
:400E40000122024B1A70FFF7D9FF08BD648DFF1F034B1B7813F0040FFAD1024B18707047676400404764004038B5074B1B782BB938BDFFF7EDFF0134A4B201E0054600242A
:400E8000285D0028F5D138BD648DFF1F044A137803F0FD03400000F0020018431070704700510040044A137803F0BF03800100F0400018431070704730510040044A13782F
:400EC00003F07F03C001C0B218431070704700BF20510040024A137843F080031370704778640040014B1870704700BF88640040014B1878704700BF68640040014B1870BD
:400F0000704700BF28640040014B1878704700BF48640040014B1870704700BF0864004008B501E0FFF7F0FFFFF7E2FF10F0080FF8D108BD08B54520FFF7E0FF4520FFF7EA
:400F4000E9FF00F0E5FB064A137843F01003137000F0E2FBFFF7E4FF0120FFF7C3FF08BD9864004008B5054B1B7823B9FFF7E2FF0122024B1A70FFF7ADFF08BD668DFF1FD0
:400F8000014B1B68D864704708ED00E04001C0B2014B1870704700BF03E400E00822014B1A60704700E100E00822014B1A60704780E100E010B50446FFF7F6FF2046FFF730
:400FC000DFFF0720FFF7E2FFFFF7E8FF10BD00BF054A137843F0040313701032137843F004031370704700BFA243004001BE704710B5044605E0084B186800F081FBA4F5AE
:401000000044B4F5004FF6D8034B586800FB04F000F076FB10BD00BF788CFF1F70B504460E46074B1D681F2802D90020FFF7DEFF04F01F04103455F8240045F8246070BD31
:4010400008ED00E038B504460D46072902D90020FFF7CCFF1F2C02D90020FFF7C7FF04F01F0000F1604000F564406D01EDB2057038BD00BF08B5134A136823F00103136091
:401080004FF4F04300E0013B23B10E4A126812F0010FF8D19BB14FF480320B4B1A6000F037FB0A4A137803F0FE0313701032137803F0FE03137000F02FFB002008BD012030
:4010C00008BD00BF10A0004080E100E0A6430040064B1A7842F001021A701B7813F0010F01D1012070470020704700BF04A0004008B500F00DFB154A137843F0010313704D
:401100001032137843F00103137000F005FB41F201220F4B1A60FFF7DBFF4FF480320D4B1A600D4A136843F0010313604FF4106300E0013B23B1084A126812F0010FF8D0AF
:401140000BB9012008BD002008BD00BFA643004000A0004000E100E010A00040064B1A7802F0FE021A701B7813F0010F01D0012070470020704700BF04A0004010F4004FEC
:4011800007D1064B18801B889BB2984203D001207047022070470020704700BF16A0004050B90D4B5A7802F0EF025A705B7813F0100F0CD001207047074B5A7842F01002A3
:4011C0005A705B7813F0100F03D101207047002070470020704700BF14A0004030B4841EE4B20D2C28D88C1EE4B2052C02D92BBB012925D1032A25D8904225D3914225D3BD
:40120000164D6C7804F0F004204368706C78E4B2A0421DD10BB9002000E002204B01DBB29200D2B2134303430C4A13701278D2B293420FD001200EE002200CE002200AE0C5
:40124000022008E0022006E0022004E0022002E0012000E0002030BC704700BF14A0004050B90D4B1A7802F0EF021A701B7813F0100F0CD001207047074B1A7842F01002EA
:401280001A701B7813F0100F03D101207047002070470020704700BF14A0004050B90D4B1A7802F0FE021A701B7813F0010F0CD001207047074B1A7842F001021A701B78E3
:4012C00013F0010F03D101207047002070470020704700BF14A00040044B18801B889BB2984201D0012070470020704704A0004003785B01214A416841F0801199500378A8
:401300005B0199189A5802F07F12436823F080139A4228D183680B610278184B03EB421319698268914220D1C2685A610278134B03EB42135969C268914218D14FF0FF3246
:401340009A6102780D4B03EB42139A69B2F1FF3F0FD10022DA610278084B03EB4213DB694BB101207047012070470120704701207047012070470020704700BFA0A000409E
:4013800001780901114A436843F4000343F008038B5003781B0199189B580D4A1A40436823F4000323F008039A420BD183684B600278064B03EB02135A6883689A4203D00A
:4013C00001207047012070470020704720A00040F7007F0038B5002409E004EB440293000E481844FFF7CCFF28B90134E4B2072CF3D9002500E001254DB10DE0084800EBBF
:401400000410FFF775FF30B90134E4B200E000240F2CF3D900E00125284638BD70440000D044000008B500F073F9324A137843F0010313701032137843F00103137000F0ED
:401440006BF92D4A137803F0FE0313704FF4F04300E0013B23B1284A127812F0010FF8D1002B3CD04FF48032244B1A6024491020FFF7D4FD07211020FFF7E4FD1720FFF77D
:401480007DFE88B9FFF78CFE80B90123022211460320FFF7A3FE58B9FFF7E2FE50B9FFF7FDFE48B1012308E0012306E0012304E0012302E0012300E0002393B9FFF78AFF6E
:4014C00088B941F20120FFF707FF70B90A4B00221A701B7813F0010F09D0012008BD012008BD012008BD012008BD012008BD002008BD00BFA643004010A0004080E100E036
:401500009115000008B5074B1B7813B9FFF78AFF00E0002020B90122024B1A70FFF7E8FD08BD00BF678DFF1F08B50222034B5A70FFF714FEFFF79EFD08BD00BF00A00040DE
:4015400038B510220F4B5A700125002417E00E4B1B881D420FD063010C4A9B5C13F0200F09D015F0010F03D02CB900F079F802E0204600F067F86D00ADB20134E4B20F2C5A
:40158000E5D938BD00A0004008A00040A0A0004008B5074B5B7813F0020F01D0FFF7C4FF034B5B7813F0100F01D0FFF7C9FF08BD00A000400F4B1B7813F0010F17D10E4AF9
:4015C00011780C4BD9725178997291785972D17819721179D9735179997391795973D2791A731A6842F001021A60002070470120704700BF20A00040708DFF1F0F4B1B7843
:4016000013F0010F17D10E4A11780C4BD9725178997291785972D17819721179D9735179997391795973D2791A731A6842F001021A60002070470120704700BF30A00040A7
:40164000808DFF1F4001054BC25C12F0010F03D0C25C42F00102C254704700BFA0A00040002317E0032B02D9C3F10B0101E0C3F103011D4A515C1D4AD1541A1D032A02D9F1
:40168000C3F1070100E0D943174A515C174A1A4411710133032BE5D910B500F04DF8C043C0B200F03DF84FF0010400210F4B186802F004FA08B94FF000040D4B1C704FF019
:4016C00001040021094B586802F0F8F908B94FF00004074B5C700122064B1A70064A137843F00103137010BDA8A00040788DFF1F0C8DFF1FFC80FF1FA0A0004000000000CF
:401700000230800803D000BF01380046FCD17047EFF3108072B6704780F31088704700BF044A137803F0FD03400000F0020018431070704720510040024B1878C0F3400077
:40174000704700BF2151004030B5214A21F00043934287B01BDD1F4A934205DD02460B4601F01CFA07B030BD02AA00F055F900F0030001281AD002280FD008B3DDE90201B8
:4017800001230093DDE9042301F0CEF8EAE70022002300F0ADFB07B030BDDDE90423DDE9020100F0A5FB01F10041DBE70090DDE90423DDE9020101F0B7F801F10041D1E770
:4017C000DDE90423DDE9020100F092FBCAE700BFFB21E93FFFFFEF7FC1F30A522DE9F843A2F2FF36132E0B4604460D46884607461CDC002E3FDB3A4A864642FA06F901EA6C
:401800000902024317D034A3D3E9002301F0C8F90022002301F006FE20B1002D40DB28EA0905002738462946BDE8F883332E06DDB6F5806F2FD020461946BDE8F883A2F20C
:4018400013424FF0FF3929FA02F910EA090FF2D021A3D3E9002301F0A3F90022002301F0E1FD0028DED0002D20DB454627EA090738462946D8E718A3D3E9002301F090F9FC
:401880000022002301F0CEFD0028CBD0002D18DB00273D46C6E702460B4601F081F9CCE74FF4801343FA06F6B044B8E7142E10D00123C6F1340603FA06F6371928BF984451
:4018C000D3E725F00042074B224318BF1D460027A8E705F10108C8E79C7500883CE4377EFFFF0F000000F0BF30B5214A21F00043934287B01BDD1F4A934205DD02460B46F7
:4019000001F04CF907B030BD02AA00F085F800F0030001281ED0022811D0DDE9042300B3DDE9020100F0E4FA01F10041EAE7002300930022002300F0F7FF07B030BD0123BB
:401940000093DDE90201DDE9042300F0EDFF01F10041D7E7DDE90423DDE9020100F0C8FAD0E70124DDE90201009400F0DDFFC9E7FB21E93FFFFFEF7FF0B58BB0054600F069
:4019800061FA224B044693F90060731C0AD02946284602F09DF8074620B90021284602F06FF810B920460BB0F0BD194A0123284601920093089701F051FA0022CDE90401E4
:4019C000CDE9020100239EB11046194601F0C4FB022ECDE906010DD102F0B6F821230360089B6BB9DDE9060101F04EFD0BB0F0BDCDE90623684601F051F80028F0D1EBE78B
:401A000002F0A2F8089B0360ECE700BF888CFF1FD0450000000000002DE9F04F944C21F00047A7428FB040F381801446914A0E46974226DC84A3D3E90023002940F3A0816B
:401A400001F0ACF88C4B80469F42894600F083807FA3D3E9002301F0A1F802460B464046C4E90023494601F099F879A3D3E9002301F094F80125C4E9020128460FB0BDE8E6
:401A8000F08F7E4A974240F383807D4A974258DC3D15A5F21645A7EB05518B46824601F0CBFC01F0C9F98046894642464B4650465946CDE9088901F071F80022714B01F079
:401AC00021FA8B46824601F0B7FC01F0B5F98046894642464B4650465946CDE90A8901F05DF80022674B01F00DFA00220023CDE90C0101F06FFC002800F06A8100234046A1
:401B00004946002201F066FC002814BF012302235D480221019000912A46214608A800F00BFB002EC0F24A81054606E0C2E9000100250024C2E90245002528460FB0BDE83C
:401B4000F08F02460B4601F029F80025C4E90201C4E90001F1E740A3D3E9002301F01EF83FA3D3E9002306460F4601F017F802460B463046C4E90023394601F00FF838A384
:401B8000D3E9002301F00AF80125C4E90201D4E700F080FF34A3D3E900238046894601F0B1F90022394B00F0FBFF01F045FC054601F042F924A3D3E90023CDE9040101F0E2
:401BC000A1F902460B464046494600F0E7FF20A3D3E9002382468B46DDE9040101F092F91F2DCDE9020155DC294B6A1E53F822309F424FD002460B465046594600F0CEFFEB
:401C000002460B4681468846C4E900234A4643465046594600F0C2FFDDE9022300F0BEFF02460B46002EC4E9022386DA4A4608F1004301F1004184E80C00E160A0606D42AF
:401C40007BE700BFAFF3008000004054FB21F93F3163621A61B4D03D0000601A61B4D03D7370032E8A19A33B83C8C96D305FE43FFB21E93F7BD90240FB21F93FFB213941DF
:401C8000FFFFEF7F00007041584600000000E03FD8450000DDE902235046594600F07EFF3F15C1F30A53FB1A102B81468846C4E90001ABDD58A3D3E90023DDE9040101F08A
:401CC00021F98046894602460B465046594600F065FFCDE9060102460B465046594600F05DFF42464B4600F059FF4DA3D3E9002380468946DDE9040101F004F942464B46A5
:401D000000F04CFF02460B46CDE90201DDE9060100F044FF0B4602468846C1F30A517F1A312F8146C4E9002372DD3FA3D3E90023DDE9040101F0E6F88046894602460B4638
:401D4000DDE9060100F02AFF02460B4682468B46DDE9060100F022FF42464B4600F01EFF33A3D3E9002380468946DDE9040101F0C9F842464B4600F011FFCDE9020139E78E
:401D800000F00EFF2E4B80469F42894622D02AA3D3E9002300F004FF02460B464046C4E90023494600F0FAFE23A3D3E9002300F0F7FE4FF0FF35C4E90201BEE66268E368DA
:401DC00002F1004203F1004345426260E360B4E603239DE610A3D3E9002300F0E1FE10A3D3E9002306460F4600F0DAFE02460B463046C4E90023394600F0D0FE08A3D3E9C9
:401E0000002300F0CDFE4FF0FF35C4E9020194E6DDE906ABFAE600BF0000601A61B4D03D7370032E8A19A33B0000002E8A19A33BC14920259A837B393163621A61B4D03DDF
:401E4000FB21F93F20F00042B2F1FF4F70B504462ED262B3002803463DDBB2F5000F4FEAE0502CD3002631467F38C3F31603C20743F4000348BF5B0040105B0019244FF0F1
:401E800080728D189D4202DC5B1BA9181644013C4FEA43034FEA5202F3D113B106F001031E44761006F17C5606EBC05070BD70BD014601F047FC214601F03CFB70BD14F427
:401EC000000201D00EE00A465B001C0202F10101F9D5801AC6E7014601F02AFB014601F0E5FC70BD4FF0FF32F3E700BF000000002DE9F04F21F00046B6F1795F85B00C46F0
:401F000092469B4605466BDA01F096FA002800F0E7802A4623462846214600F0F3FF74A3D3E900238046894600F0ECFF72A3D3E9002300F035FE42464B4600F0E3FF70A34D
:401F4000D3E9002300F02AFE42464B4600F0DAFF6DA3D3E9002300F023FE42464B4600F0D1FF6BA3D3E9002300F018FE42464B4600F0C8FF68A3D3E9002300F011FE42467B
:401F80004B4600F0BFFFCDE900010022644B4046494600F0B7FFDDE9002306460F464046494600F0AFFF5246804689465B462846214600F0A7FF02460B464046494600F08B
:401FC000EDFD02460B463046394600F0E7FD02460B460020534900F0E1FD05B0BDE8F08F02460B4600F08EFF41A3D3E900238046894600F087FF40A3D3E9002300F0D0FD36
:4020000042464B4600F07EFF3DA3D3E9002300F0C5FD42464B4600F075FF3BA3D3E9002300F0BEFD42464B4600F06CFF38A3D3E9002300F0B3FD42464B4600F063FF36A3B2
:40204000D3E9002300F0ACFD4B46424600F05AFF354BCDE900019E4297DD344B00229E4238DCA6F5001300202E4916461F4600F095FDCDE902010022294B4046494600F08A
:4020800041FF32463B4600F089FDDDE9002306460F464046494600F035FF5246804689465B462846214600F02DFF02460B464046494600F073FD02460B463046394600F063
:4020C0006DFD02460B46DDE9020100F067FD05B0BDE8F08F164B0026CDE90223154FCAE71049002005B0BDE8F08F00BFAFF30080D43888BEE9FAA8BDC4B1B4BD9EEE213ED2
:40210000AD529C804F7E923E9015CB19A001FA3E7751C1166CC1563F4C5555555555A53F0000E03F0000F03F3233D33F0000E93F0000E73F0000D23F2DE9F04F794CADF56B
:402140001D7D1F460B93D31E84FB0354DB17C3EBA403A69E744C23EAE37554F826406B1C26460994A3EB83037C1E0D95029402EBC3032D1B341904900A91089316D42C44B7
:40218000013422AEA79F08E057F8250000F054FE0135A542E6E9020108D0002DF4DA013500200021A542E6E90201F6D1099B002B2FDB099B74AADDF8089002EBC30B0DF5B8
:4021C000E47A029B002BC0F295810B9B0026C3EB090824AB03EBC808049B0027A3F1080524AB03EBC904F5E9022374E8020100F089FE02460B463046394600F0D1FC44453B
:4022000006460F46EFD1EAE90267DA4509F10109D7D1099B10A91D4603F18043023B9B001A1D0A440B440F920E939CAB03EBC503002D53E928672BDD9CAB03EBC504A83CF2
:402240000DF13C0A0DF5E47B0022384B3046394600F058FE01F0F0F800F0EEFD0022344B8046894600F04EFE02460B463046394600F094FC01F0E0F874E802234AF8040F06
:402280004946404600F08CFC5C4506460F46DBD1089C30463946224600F002FC00224FF07F5306460F4600F02DFEFFF795FA0022204B00F027FE02460B463046394600F020
:4022C0006DFC0F46064601F0B7F8814600F0B4FD02460B463046394600F060FC002C06460F4640F3EE80681E10AB53F82030C4F1180243FA02F101FA02F29B1AC4F1170831
:4023000010AA42F82030894443FA08F8B8F1000F3DDD002D09F1010940F3D382002214460FA911E0ABAAAA2A604700000000703E0000704100002040C3F180700BB1086048
:402340000124013295420DDD51F8043F002CF3D0C3F1FF13013203F57F4395420B604FF00104F1DC089B002B0DDD012B00F0B180022B08D16A1E10AB53F8223010A9C3F369
:40238000150341F82230B8F1020F00F08180002200233046394601F01DF8002800F05B82099B05F1FF3B5B4510DC05F1804310AA013B0F9802EB8303002253F80419834222
:4023C00042EA0102F9D1002A40F0B180099B10AA013B52F82330002B40F071820E9A012352F8041901330029FAD0E9186A1C8A420C914BDC0D990B985118DB0001F1804123
:402400000593A79B05440139E80003EB810A24ABD20003EB000B74AB13440193A2F10803069007934FF000095AF8040F00F004FD029BEBE80201002B4FF000064FF00007A5
:402440001BDB069B03EB0904079B09EB030824AB1C449844049BA3F10805F5E9022374E8020100F04FFD02460B463046394600F097FB444506460F46EFD1019B09F108099F
:40248000E3E802670193059B9945CDD10C9DCCE632463B460020B04900F080FB06460F46002C3FF474AF089A0020AB4900F0F8FA02460B463046394600F070FB06460F461B
:4024C00065E710D16B1E10AA52F823304FEAE3581CE76A1E10AB53F8223010A9C3F3160341F822304FE700229C4B00F091FF58B980464CE700260027EAE90267DA4509F1FA
:4025000001097FF45EAE84E6002D09F10109C8BF4FF002083FF702AF32463B4600208E4900F03CFB4FF0020806460F462FE7089A10AB53F82B30183ACDF81490CDF80480A2
:4025400008926BB90BF18043013B10A901EB830353F804190BF1FF3B183A0029F8D00892089A00207C4900F09BFABBF1000F04460D46C0F2B6814FEACB030DF5E87810AA8C
:4025800002EB8B0608EB03090493043609F1080756F8040D00F050FC22462B4600F0B2FC002267E902016E4B2046294600F0AAFCB84504460D46EBD14B46CDF818B09B46C4
:4025C0000DF5987ACDF808A0DDF824A04FF00009BAF1000FC0F226815DA3D3E90023DFF884815D4600260027002403E0A14510DBF8E90223F5E8020100F084FC02460B46F4
:402600003046394600F0CCFA0134A24506460F46ECDA029BABF1080B03EBC903C3E9006772AB5B4509F10109D2D1A69BDDF818B0DDF808A0032B00F28380DFE813F0D100D6
:40264000950095000400BBF1000F40F35481049BCDF808B053449846D3E90067D34658E9029A32463B464846514600F099FA04460D4602460B464846514600F08FFA3246D2
:402680003B4600F08DFAC8E9000168E90245C34526462F46E3D1DA46DDF808B0BBF1010F40F32981049B0DF59C7B53449846D3E90067994659E902343046CDE902341A468C
:4026C0003946234600F06CFA04460D4602460B46DDE9020100F062FA32463B4600F060FAC9E9000169E90245CB4526462F46E1D100231D4608F1080850AC184678E90223B0
:40270000294600F04DFA444503460D46F5D1019A002A00F0D880DAF80440DAF80C200A9FDAF80010DAF8080005F1004504F1004402F100427D613B617C60FA603960B86078
:40274000059B03F007000DF51D7DBDE8F08F00BF00000040FB21F93F0000F03F0000E03F0000703E7047000000242146049D0835554475E90223204600F012FA554504462E
:40278000F7D1019B002B50D00A9F01F100450B46DAE9000187E83000224600F0FFF9BBF1000F03460D460DDD01241846FAE90223294600F0F5F90134A34503460D46F4DAE6
:4027C000019A0AB105F10045184629460A9BC3E90201059B03F007000DF51D7DBDE8F08F00231C46049A0832924418467AE90223214600F0D5F90BF1FF3BBBF1FF3F034626
:402800000C46F2D1019A0AB104F10044184621460A9BC3E90001059B03F007000DF51D7DBDE8F08F00260027F3E626460F4622460A9C0B46DAE90001C4E9006700F0AEF9CE
:40284000BBF1000F03460D46AEDC184629460A9BC3E90201BDE7089B30465A423946CDF81490CDF8048000F01BF900222C4B06460F4600F0CDFD002840D00022294B304690
:40288000394600F03FFB00F0D7FD044600F0D4FA0022234B00F036FB0B4602463946304600F07CF900F0C8FD089B05F1010B1833089310AB43F8250043F82B4050E60123A4
:4028C00093E500244EE51846DAE90067DAE9022329460A9DC5E90067C5E90401C5E902232EE7A69B032B3FF62BAFDFE803F0151010020DF5987A00231D4608E730463946E6
:4029000000F09AFD10ABAB4643F8250028E6002421460DF5987A34E700231C4672E700BF000070410000703E2DE9F04F21F00046B6F1795F85B00C4690469946054604DAB0
:4029400000F07AFD002800F085802A4623462846214600F0D7FA06460F4602460B462846214600F0CFFA3EA3D3E9002382468B463046394600F0C6FA3BA3D3E9002300F0F1
:402980000DF932463B4600F0BDFA39A3D3E9002300F006F932463B4600F0B4FA36A3D3E9002300F0FBF832463B4600F0ABFA34A3D3E9002300F0F4F80E9BCDE900019BB3C7
:4029C0000022334B4046494600F09CFADDE90023CDE902015046594600F094FA02460B46DDE9020100F0DAF832463B4600F08AFA42464B4600F0D2F823A3D3E900230646F2
:402A00000F465046594600F07DFA02460B463046394600F0C5F802460B462846214600F0BDF805B0BDE8F08F02460B463046394600F068FA14A3D3E9002300F0AFF85246D9
:402A40005B4600F05FFA2A46234600F0A9F805B0BDE8F08F2846214605B0BDE8F08F00BF7CD5CF5A3AD9E53DEB9C2B8AE6E55A3E7DFEB157E31DC73ED561C119A0012A3FCC
:402A8000A6F810111111813F495555555555C53F0000E03F21F00041704700BF00207047F8B5C1F30A5604460D460B46174606BB21F00043034325D000222F4B00F022FABD
:402AC0002E4A044697420D460B462ADBC1F30A56363E40F2FE723E44964228DC002E12DD23F0FF4323F4E00343EA065520462946F8BD40F2FF729642EBD102460B4600F0CC
:402B00004FF8F8BDF8BD16F1350F1DDA4CF250339F420CDC14A1D1E9000122462B4600F031F811A3D3E9002300F0ECF9F8BD22460FA1D1E900012B4600F024F80CA3D3E9DE
:402B4000002300F0DFF9F8BD23F0FF4323F4E003363643EA0655204629460022084B00F0D1F9F8BDAFF3008059F3F8C21F6EA5019C7500883CE4377E00005043B03CFFFF73
:402B80000000903C03F0004321F0004242EA0301704700BF81F0004102E000BF83F0004330B54FEA41044FEA430594EA050F08BF90EA020F1FBF54EA000C55EA020C7FEA6B
:402BC000645C7FEA655C00F0E2804FEA5454D4EB5555B8BF6D420CDD2C4480EA020281EA030382EA000083EA010180EA020281EA0303362D88BF30BD11F0004F4FEA0131E5
:402C00004FF4801C4CEA113102D0404261EB410113F0004F4FEA03334CEA133302D0524263EB430394EA050F00F0A780A4F10104D5F1200E0DDB02FA0EFC22FA05F2801854
:402C400041F1000103FA0EF2801843FA05F359410EE0A5F120050EF1200E012A03FA0EFC28BF4CF0020C43FA05F3C01851EBE37101F0004507D54FF0000EDCF1000C7EEB46
:402C800000006EEB0101B1F5801F1BD3B1F5001F0CD349085FEA30004FEA3C0C04F101044FEA445212F5800F80F09A80BCF1004F08BF5FEA500C50F1000041EB045141EA59
:402CC000050130BD5FEA4C0C404141EB010111F4801FA4F10104E9D191F0000F04BF01460020B1FA81F308BF2033A3F10B03B3F120020CDA0C3208DD02F1140CC2F10C0261
:402D000001FA0CF021FA02F10CE002F11402D8BFC2F1200C01FA02F120FA0CFCDCBF41EA0C019040E41AA2BF01EB0451294330BD6FEA04041F3C1CDA0C340EDC04F114048E
:402D4000C4F1200220FA04F001FA02F340EA030021FA04F345EA030130BDC4F10C04C4F1200220FA02F001FA04F340EA0300294630BD21FA04F0294630BD94F0000F83F487
:402D8000801306BF81F480110134013D4EE77FEA645C18BF7FEA655C29D094EA050F08BF90EA020F05D054EA000C04BF1946104630BD91EA030F1EBF0021002030BD5FEAA1
:402DC000545C05D14000494128BF41F0004130BD14F580043CBF01F5801130BD01F0004545F0FE4141F470014FF0000030BD7FEA645C1ABF194610467FEA655C1CBF0B46B8
:402E0000024650EA013406BF52EA033591EA030F41F4002130BD00BF90F0000F04BF0021704730B54FF4806404F132044FF000054FF0000150E700BF90F0000F04BF0021C5
:402E4000704730B54FF4806404F1320410F0004548BF40424FF000013EE700BF42004FEAE2014FEA31014FEA02701FBF12F07F4393F07F4F81F06051704792F0000F14BFCE
:402E800093F07F4F704730B54FF4607401F0004521F0004120E700BF50EA010208BF704730B54FF000050AE050EA010208BF704730B511F0004502D5404261EB41014FF4E2
:402EC000806404F132045FEA915C3FF4DCAE4FF003025FEADC0C18BF03325FEADC0C18BF033202EBDC02C2F1200300FA03FC20FA02F001FA03FE40EA0E0021FA02F11444D2
:402F0000C1E600BF70B54FF0FF0C4CF4E06C1CEA11541DBF1CEA135594EA0C0F95EA0C0F00F0DEF82C4481EA030621EA4C5123EA4C5350EA013518BF52EA033541F48011C9
:402F400043F4801338D0A0FB02CE4FF00005E1FB02E506F00042E0FB03E54FF00006E1FB03569CF0000F18BF4EF0010EA4F1FF04B6F5007F64F5407404D25FEA4E0E6D41E1
:402F800046EB060642EAC62141EA55514FEAC52040EA5E504FEACE2EB4F1FD0C88BFBCF5E06F1ED8BEF1004F08BF5FEA500E50F1000041EB045170BD06F0004646EA010111
:402FC00040EA020081EA0301B4EB5C04C2BFD4EB0C0541EA045170BD41F480114FF0000E013C00F3AB8014F1360FDEBF002001F0004170BDC4F10004203C35DA0C341BDC0A
:4030000004F11404C4F1200500FA05F320FA04F001FA05F240EA020001F0004221F0004110EBD37021FA04F642EB06015EEA430E08BF20EAD37070BDC4F10C04C4F1200506
:4030400000FA04F320FA05F001FA04F240EA020001F0004110EBD37041F100015EEA430E08BF20EAD37070BDC4F1200500FA05F24EEA020E20FA04F301FA05F243EA02036E
:4030800021FA04F001F0004121FA04F220EA020000EBD3705EEA430E08BF20EAD37070BD94F0000F0FD101F00046400041EB010111F4801F08BF013CF7D041EA060195F06C
:4030C000000F18BF704703F00046520043EB030313F4801F08BF013DF7D043EA0603704794EA0C0F0CEA135518BF95EA0C0F0CD050EA410618BF52EA4306D1D181EA0301E3
:4031000001F000414FF0000070BD50EA410606BF1046194652EA430619D094EA0C0F02D150EA013613D195EA0C0F05D152EA03361CBF104619460AD181EA030101F00041D6
:4031400041F0FE4141F470014FF0000070BD41F0FE4141F4780170BD70B54FF0FF0C4CF4E06C1CEA11541DBF1CEA135594EA0C0F95EA0C0F00F0A7F8A4EB050481EA030EFC
:4031800052EA03354FEA013100F088804FEA03334FF0805545EA131343EA12634FEA022245EA111545EA10654FEA00260EF000419D4208BF964244F1FD0404F5407402D295
:4031C0005B084FEA3202B61A65EB03055B084FEA32024FF480104FF4002CB6EB020E75EB030E22BFB61A754640EA0C005B084FEA3202B6EB020E75EB030E22BFB61A7546A3
:4032000040EA5C005B084FEA3202B6EB020E75EB030E22BFB61A754640EA9C005B084FEA3202B6EB020E75EB030E22BFB61A754640EADC0055EA060E18D04FEA051545EAC3
:4032400016754FEA06164FEAC30343EA52734FEAC2025FEA1C1CC0D111F4801F0BD141EA00014FF000004FF0004CB6E711F4801F04BF01430020B4F1FD0C88BFBCF5E06F9B
:403280003FF6AFAEB5EB030C04BFB6EB020C5FEA500C50F1000041EB045170BD0EF0004E4EEA113114EB5C04C2BFD4EB0C0541EA045170BD41F480114FF0000E013C90E6DE
:4032C00045EA060E8DE60CEA135594EA0C0F08BF95EA0C0F3FF43BAF94EA0C0F0AD150EA01347FF434AF95EA0C0F7FF425AF104619462CE795EA0C0F06D152EA03353FF4A9
:40330000FDAE1046194622E750EA410618BF52EA43067FF4C5AE50EA41047FF40DAF52EA43057FF4EBAE12E74FF0FF3C06E000BF4FF0010C02E000BF4FF0010C4DF804CDBC
:403340004FEA410C7FEA6C5C4FEA430C18BF7FEA6C5C1BD001B050EA410C0CBF52EA430C91EA030F02BF90EA020F0020704710F1000F91EA030F58BF994208BF90422CBFCA
:40338000D8176FEAE37040F0010070474FEA410C7FEA6C5C02D150EA013C07D14FEA430C7FEA6C5CD6D152EA033CD3D05DF8040B704700BF8446104662468C4619466346B7
:4033C00000E000BF01B5FFF7B7FF002848BF10F1000F01BD4DF808EDFFF7F4FF0CBF012000205DF808FB00BF4DF808EDFFF7EAFF34BF012000205DF808FB00BF4DF808EDEB
:40340000FFF7E0FF94BF012000205DF808FB00BF4DF808EDFFF7CEFF94BF012000205DF808FB00BF4DF808EDFFF7C4FF34BF012000205DF808FB00BF4FEA410212F5001291
:4034400015D211D56FF47873B3EB625212D94FEAC12343F0004343EA505311F0004F23FA02F018BF404270474FF00000704750EA013005D111F0004008BF6FF0004070478D
:403480004FF00000704700BF4FEA4102B2F1E04324BFB3F5001CDCF1FE5C0DD901F0004C4FEAC0024CEA5070B2F1004F40EB830008BF20F00100704711F0804F21D113F13E
:4034C0003872BCBF01F00040704741F480114FEA5252C2F11802C2F1200C10FA0CF320FA02F018BF40F001004FEAC1234FEAD32303FA0CFC40EA0C0023FA02F34FEA43033B
:40350000CCE77FEA625307D150EA01331EBF4FF0FE4040F44000704701F0004040F0FE4040F40000704700BF80F0004002E000BF81F0004142001FBF5FEA410392EA030F68
:403540007FEA226C7FEA236C6AD04FEA1262D2EB1363C1BFD218414048404140B8BF5B42192B88BF704710F0004F40F4000020F07F4018BF404211F0004F41F4000121F0B6
:403580007F4118BF494292EA030F3FD0A2F1010241FA03FC10EB0C00C3F1200301FA03F100F0004302D5494260EB4000B0F5000F13D3B0F1807F06D340084FEA310102F1D6
:4035C0000102FE2A51D2B1F1004F40EBC25008BF20F0010040EA03007047490040EB000010F4000FA2F10102EDD1B0FA80FCACF1080CB2EB0C0200FA0CF0AABF00EBC250DA
:4036000052421843BCBFD0401843704792F0000F81F4000106BF80F400000132013BB5E74FEA41037FEA226C18BF7FEA236C21D092EA030F04D092F0000F08BF08467047C0
:4036400090EA010F1CBF0020704712F07F4F04D1400028BF40F00040704712F100723CBF00F50000704700F0004343F0FE4040F4000070477FEA226216BF08467FEA236371
:403680000146420206BF5FEA412390EA010F40F4800070474FF0000304E000BF10F0004348BF40425FEA000C08BF704743F0964301464FF000001CE050EA010208BF70474B
:4036C0004FF000030AE000BF50EA010208BF704711F0004302D5404261EB41015FEA010C02BF84460146002043F0B64308BFA3F18053A3F50003BCFA8CF2083AA3EBC253A3
:4037000010DB01FA02FC634400FA02FCC2F12002BCF1004F20FA02F243EB020008BF20F00100704702F1200201FA02FCC2F1200250EA4C0021FA02F243EB020008BF20EAEF
:40374000DC7070474FF0FF0C1CEAD0521EBF1CEAD15392EA0C0F93EA0C0F6FD01A4480EA010C400218BF5FEA41211ED04FF0006343EA501043EA5111A0FB01310CF0004011
:40378000B1F5000F3EBF490041EAD3715B0040EA010062F17F02FD2A1DD8B3F1004F40EBC25008BF20F00100704790F0000F0CF0004C08BF49024CEA502040EA51207F3A87
:4037C000C2BFD2F1FF0340EAC250704740F400004FF00003013A5DDC12F1190FDCBF00F000407047C2F10002410021FA02F1C2F1200200FA02FC5FEA310040F1000053EA40
:403800004C0308BF20EADC70704792F0000F00F0004C02BF400010F4000F013AF9D040EA0C0093F0000F01F0004C02BF490011F4000F013BF9D041EA0C018FE70CEAD15390
:4038400092EA0C0F18BF93EA0C0F0AD030F0004C18BF31F0004CD8D180EA010000F00040704790F0000F17BF90F0004F084691F0000F91F0004F14D092EA0C0F01D142024A
:403880000FD193EA0C0F03D14B0218BF084608D180EA010000F0004040F0FE4040F40000704740F0FE4040F4400070474FF0FF0C1CEAD0521EBF1CEAD15392EA0C0F93EA57
:4038C0000C0F69D0A2EB030280EA010C49024FEA402037D04FF0805343EA111143EA10130CF000408B4238BF5B0042F17D024FF4000C8B4224BF5B1A40EA0C00B3EB510F1A
:4039000024BFA3EB510340EA5C00B3EB910F24BFA3EB910340EA9C00B3EBD10F24BFA3EBD10340EADC001B0118BF5FEA1C1CE0D1FD2A3FF650AF8B4240EBC25008BF20F009
:40394000010070470CF0004C4CEA50207F32C2BFD2F1FF0340EAC250704740F400004FF00003013A37E792F0000F00F0004C02BF400010F4000F013AF9D040EA0C0093F04A
:40398000000F01F0004C02BF490011F4000F013BF9D041EA0C0195E70CEAD15392EA0C0F08D142027FF47DAF93EA0C0F7FF470AF084676E793EA0C0F04D14B023FF44CAFBA
:4039C00008466EE730F0004C18BF31F0004CCAD130F000427FF45CAF31F000437FF43CAF5FE700BF4FF0FF3C06E000BF4FF0010C02E000BF4FF0010C4DF804CD4FEA400249
:403A00004FEA41037FEA226C18BF7FEA236C11D001B052EA530C18BF90EA010F58BFB2EB030088BFC81738BF6FEAE17018BF40F0010070477FEA226C02D15FEA402C05D123
:403A40007FEA236CE4D15FEA412CE1D05DF8040B704700BF844608466146FFE70FB5FFF7C9FF002848BF10F1000F0FBD4DF808EDFFF7F4FF0CBF012000205DF808FB00BFE0
:403A80004DF808EDFFF7EAFF34BF012000205DF808FB00BF4DF808EDFFF7E0FF94BF012000205DF808FB00BF4DF808EDFFF7D2FF94BF012000205DF808FB00BF4DF808ED02
:403AC000FFF7C8FF34BF012000205DF808FB00BF4FEA40024FEA41037FEA226C02D15FEA402C08D17FEA236C02D15FEA412C02D14FF0000070474FF0010070474FEA4002B2
:403B0000B2F1FE4F0FD34FF09E03B3EB12620DD94FEA002343F0004310F0004F23FA02F018BF404270474FF00000704712F1610F01D1420205D110F0004008BF6FF00040A0
:403B400070474FF000007047014B1868704700BFEC8CFF1F0E4B70B51E460E4C0025E41AA410A54204D056F8253098470135F8E700F03AFE084B094C1E46E41AA410002550
:403B8000A54204D056F8253098470135F8E770BDF4470000F4470000F4470000FC47000010B5431E0A44914204D011F8014B03F8014FF8E710BD03460244934202D003F8FA
:403BC000011BFAE7704700000EB400B54FF402719CB0ADF814106FF00041049107914FF6FF711DAB02900690084853F8042BADF81610006802A9019300F064F8029B002216
:403C00001A701CB05DF804EB03B07047EC8CFF1F2DE9F0478E6882469E420C46914698463ED88A8912F4906F3AD02568096902236F1A656905EB450595FBF3F57B1C434475
:403C40009D4238BF1D4653050FD5294600F040FB064698B13A462169FFF7A2FFA38923F4906343F08003A38113E02A4600F08EFB064670B92169504600F0DEFA0C23CAF8C5
:403C80000030A3894FF0FF3043F04003A381BDE8F08726613E44266046466561ED1BA560464528BF464649463246206800F0A8FAA36800209B1BA36023681E442660BDE87B
:403CC000F08700002DE9F04F9DB003938B8980461C060D4616460DD50B695BB9402100F0F7FA2860286118B90C23C8F80030CDE040236B610023099320238DF82930DFF82A
:403D00009CB130238DF82A3037463C4614F8013B1BB9B7EB060910D003E0252BF9D02746F3E74B46324629464046FFF771FF013000F0A780099B4B4409933B78002B00F0CC
:403D4000A08000234FF0FF3204930793059206938DF853301A930126052221784E4800F041FA671C049B38B14B4A3C46801A06FA00F018430490EFE7D90644BF20228DF8B8
:403D800053201A0744BF2B228DF8532022782A2A03D0079A00210A200BE0039A111D12680391002A10DA524243F00200079204900BE027463B780134303B092B03D800FBF7
:403DC00002320121F5E701B107923B782E2B1ED17B782A2B0AD1039B02371A1D1B680392002BB8BF4FF0FF33059310E0002319460593781C0A2407463A780130303A092ABE
:403E000003D804FB01210123F5E703B1059103223978224800F0E6F940B14023CBEB000003FA00F0049B013718430490397806221B487E1C8DF8281000F0D4F988B1194B83
:403E400033B9039B073323F007030833039314E003AB00932A46144B04A94046AFF3008007E003AB00932A460F4B04A9404600F093F8B0F1FF3F824603D0099B5344099346
:403E800042E7AB895B0601D4099801E04FF0FF301DB0BDE8F08F00BFB2470000B8470000BC47000000000000113C00002DE9F04791461F460A698B6806469342B8BF1346A7
:403EC000C9F8003091F843200C46DDF8208012B10133C9F800302368990642BFD9F800300233C9F80030256815F0060510D104F1190A07E00123524639463046C04701307E
:403F00001AD00135E368D9F800209B1A9D42F1DB94F843302268003318BF012392060FD5E118302081F843005A1C94F845102244023382F8431003E04FF0FF30BDE8F08761
:403F400004F1430239463046C0470130F4D02268D9F80050E36802F00602042A08BF5D1B2269A3680CBF25EAE57500259342C4BF9B1AED184FF000091A344D4509D0012393
:403F8000224639463046C0470130D5D009F10109F3E70020BDE8F0872DE9F04317460A7E85B06E2A984606460C460C9B01F1430E00F0AE8011D8632A22D009D8002A00F0CB
:403FC000BB80582A40F0CA8081F84520834955E0642A1ED0692A1CD0C0E0732A00F0B08009D86F2A2ED0702A40F0B8800A6842F020020A603EE0752A24D0782A3AD0ADE0BF
:404000001A6801F14205111D1960136884F84230A8E021681A6811F0800F02D0111D196008E011F0400F02F10401196002D0B2F9003000E01368002B3CDA2D225B4284F8BF
:40404000432037E021681A6811F0800F02D0111D196007E011F0400F02F10401196001D0138800E01368227E5C496F2A14BF0A2208221BE078225A4984F845202268186819
:4040800012F0800F00F104051D6003D1550601D5038800E00368D00744BF42F0200222601BB9226822F0200222601022002084F8430001E049490A226568002DA56008DBC7
:4040C000206820F0040020602BB9002D7DD175460CE0002B79D07546B3FBF2F002FB1033CB5C05F8013D03460028F5D1082A0BD12368DA0708D5236962689A42DEBF30238D
:4041000005F8013C05F1FF35C5EB0E0323612EE008681A6810F0800F496903D0101D1860136808E010F0400F02F104001860136801D0198000E0196000232361754616E066
:404140001A68111D1960156800216268284600F049F808B1401B6060636804E004F1420584F8422001232361002384F84330CDF800803B4603AA21463046FFF797FE0130AC
:4041800002D14FF0FF3026E023692A4639463046C0470130F5D023689B0710D5002504F1190907E001234A4639463046C0470130E7D00135E368039A9B1A9D42F2DBE06836
:4041C000039B9842B8BF184605E00B7804F1420584F842308AE705B0BDE8F083C3470000D447000010B5C9B202449042034605D01C7801308C42F8D1184610BD002010BD93
:40420000884210B501EB020301D8421E0BE09842FBD28118D21AD34204D013F8014D01F8014DF8E710BD994204D011F8014B02F8014FF8E710BD000038B50546002944D00A
:4042400051F8043C0C1F002BB8BFE41800F0D4F81E4A1368114613B96360146030E0A3420DD92268A018834201BF18685B681218226063600C6023E0A24203D813465A6856
:40428000002AF9D118681918A1420BD12168014458188242196013D110685268014419605A600DE002D90C232B6009E021686018824201BF106852680918216062605C604F
:4042C0002846BDE8384000F098B838BD6C8DFF1F70B5CD1C25F0030508350C2D38BF0C25002D064601DBA94202D90C23336046E000F082F8234B1C681A462146A1B10B6833
:404300005B1B0ED40B2B03D90B60CC18CD501EE08C420BBF63684B681360636018BF0C4615E00C464968E9E7174C23681BB9304600F052F820602946304600F04DF8431C01
:4043400018D0C41C24F00304A0420DD12560304600F053F804F10B00231D20F00700C31A0ED05A42E25070BD211A304600F034F80130EBD10C233360304600F03EF800201F
:4043800070BD00BF6C8DFF1F688DFF1FF8B5074615460E4621B91146BDE8F840FFF798BF1AB9FFF749FF2846F8BD00F027F885420ED929463846FFF78BFF044650B13146C3
:4043C0002A46FFF7EDFB31463846FFF735FF01E03046F8BD2046F8BD38B5064C0023054608462360FCF784FC431C02D1236803B12B6038BD6C8EFF1F7047704751F8040C68
:404400000028BEBF091851F8043CC01804387047000000000000000025732025732025732025733B0D0A000025642E25640000004051004030000000014000100014014069
:404440000006801A0140800100400140000A004C01400002005001402000000060520040E40F00480600001A0140EC0F004880000000000000000800000020000100000095
:4044800000000800000040000200000008008800000000000300000008008800000000000400000008008800000000000500000008008800000000000600000008008800D0
:4044C000000000000700000008008800000000000000000028000000F9FF1F00000020200100000000000000000000000000000002000000000000000000000000000000A3
:404500000300000000000000000000000000000004000000000000000000000000000000050000000000000000000000000000000600000000000000000000000000000069
:404540000700000000000000000000000000000008000000000000000000000000000000090000000000000000000000000000000A00000000000000000000000000000019
:404580000B0000000000000000000000000000000C0000000000000000000000000000000D0000000000000000000000000000000E000000000000000000000000000000C9
:4045C0000F0000000000000000000000000000007371727466000000FB21F93FFB2109407CD91240FB2119407A6A1F407CD92240BBFD2540FB2129403A462C407A6A2F40CC
:404600005C4731407CD932409C6B3440BBFD3540DB8F3740FB2139401BB43A403A463C405AD83D407A6A3F404C7E40405C4741406C1042407CD942408CA243409C6B4440AB
:40464000AC344540BBFD4540CBC64640DB8F4740EB584840FB21494083F9A200444E6E00FC291500D1572700DD34F50062DBC0003C999500419043006351FE00BBDEAB0002
:40468000B761C5003A6E2400D24D42004906E00009EA2E001C92D100EB1DFE0029B11C00E83EA700F535820044BB2E009CE98400B4267000417E5F00D6913900538339005F
:4046C0009CF439008B5F840028F9BD00F81F3B00DEFF97000F980500112FEF000A5A8B006D1F6D00CF7E360009CB2700464FB7009E663F002DEA5F00BA277500E5EBC700AC
:404700003D7BF100F739070092528A00FB6BEA001FB15F00085D8D00300356007BFC4600F0AB6B0020BCCF0036F49A00E3A91D005E619100081BE60085996500A0145F0067
:404740008D40680080D8FF0027734D0006063100CA561500C9A873007BE260006B8CC0000200000003000000040000000600000000000040FB21F93F000000002D44743E36
:40478000000000809846F83C0000006051CC783B00000080831BF0390000004020257A38000000802282E336000000001DF369354300232D302B2000686C4C006566674529
:4047C00046470030313233343536373839414243444546003031323334353637383961626364656600000000F8B500BFF8BC08BC9E4670474D0000006D0D0000F8B500BF76
:40480000F8BC08BC9E4670472900000020480000C880FF1F280C000080010000000000000000000000004040000040400000A0400000E040000000400000204100000041D7
:4048400000004041000030410000E0400000E040000080400100000000002041000020416F69206D62656400000000000000000000000000000000000000000000000000F3
:40488000000000000000000000000000000000000000000000000000000000000000000000000000CDCC4C3ECDCCCC3D8FC2753CCDCCCC3D8FC2753CCDCC4C3DEC51B83D39
:4048C000295C8F3D00000000000000000000000000000000000000000000000000000000000000000000000000000000000000000000000000000000000000000000000067
:404900000000000000000000000000000000000000000000000000000000000000000000000000000000000000000000000000000000000000000000000000000000000077
:4049400000000000000000000000803F4E4200000000000000004E4200000000000000004200000000000000000053000000000000000000320000000000000000004E4201
:4049800000000000000000004E4D00000000000000004200000000000000000053000000000000000000320000000000000000004E4200000000000000004E530000000064
:4049C000000000004200000000000000000053000000000000000000320000000000000000004E4200000000000000005A4F00000000000000004200000000000000000075
:404A000053000000000000000000320000000000000000004E42000000000000000050530000000000000000420000000000000000005300000000000000000032000000F7
:404A40000000000000004E420000000000000000504D00000000000000004200000000000000000053000000000000000000320000000000000000004E42000000000000B2
:404A80000000504200000000000000004200000000000000000053000000000000000000320000000000000000004E4D00000000000000004E42000000000000000053001F
:404AC000000000000000000042000000000000000000330000000000000000004E4D00000000000000004E4D00000000000000004200000000000000000042000000000087
:404B000000000000330000000000000000004E4D00000000000000004E5300000000000000004200000000000000000053000000000000000000320000000000000000003F
:404B40004E4D00000000000000005A4F00000000000000004200000000000000000053000000000000000000320000000000000000004E4D000000000000000050530000EC
:404B80000000000000004200000000000000000053000000000000000000320000000000000000004E4D0000000000000000504D00000000000000004200000000000000B4
:404BC000000042000000000000000000330000000000000000004E4D000000000000000050420000000000000000530000000000000000004200000000000000000033004B
:404C000000000000000000004E5300000000000000004E4200000000000000005300000000000000000042000000000000000000340000000000000000004E5300000000D9
:404C4000000000004E4D00000000000000005300000000000000000042000000000000000000330000000000000000004E5300000000000000004E5300000000000000008F
:404C80004200000000000000000042000000000000000000330000000000000000004E5300000000000000005A4F000000000000000042000000000000000000530000005E
:404CC000000000000000320000000000000000004E530000000000000000505300000000000000004200000000000000000042000000000000000000330000000000000087
:404D000000004E530000000000000000504D00000000000000005300000000000000000042000000000000000000330000000000000000004E53000000000000000050423A
:404D400000000000000000005300000000000000000042000000000000000000340000000000000000005A4F00000000000000004E420000000000000000530000000000DE
:404D80000000000042000000000000000000350000000000000000005A4F00000000000000004E4D00000000000000005300000000000000000042000000000000000000A3
:404DC000340000000000000000005A4F00000000000000004E5300000000000000005300000000000000000042000000000000000000330000000000000000005A4F0000C4
:404E00000000000000005A4F00000000000000004200000000000000000042000000000000000000330000000000000000005A4F00000000000000005053000000000000C6
:404E400000005300000000000000000042000000000000000000330000000000000000005A4F0000000000000000504D00000000000000005300000000000000000042008F
:404E80000000000000000000340000000000000000005A4F0000000000000000504200000000000000005300000000000000000042000000000000000000350000000000B9
:404EC00000000000505300000000000000004E4200000000000000005300000000000000000042000000000000000000340000000000000000005053000000000000000013
:404F00004E4D0000000000000000530000000000000000004200000000000000000033000000000000000000505300000000000000004E5300000000000000004200000088
:404F40000000000000004200000000000000000033000000000000000000505300000000000000005A4F0000000000000000420000000000000000005300000000000000DB
:404F8000000032000000000000000000505300000000000000005053000000000000000042000000000000000000420000000000000000003300000000000000000050531F
:404FC0000000000000000000504D00000000000000005300000000000000000042000000000000000000330000000000000000005053000000000000000050420000000017
:4050000000000000530000000000000000004200000000000000000034000000000000000000504D00000000000000004E4200000000000000005300000000000000000027
:405040004200000000000000000033000000000000000000504D00000000000000004E4D0000000000000000420000000000000000004200000000000000000033000000CC
:40508000000000000000504D00000000000000004E530000000000000000420000000000000000005300000000000000000032000000000000000000504D0000000000004E
:4050C00000005A4F0000000000000000420000000000000000005300000000000000000032000000000000000000504D0000000000000000505300000000000000004200BE
:4051000000000000000000005300000000000000000032000000000000000000504D0000000000000000504D0000000000000000420000000000000000004200000000002C
:405140000000000033000000000000000000504D00000000000000005042000000000000000053000000000000000000420000000000000000003300000000000000000005
:40518000504200000000000000004E420000000000000000420000000000000000005300000000000000000032000000000000000000504200000000000000004E4D0000D9
:4051C000000000000000420000000000000000005300000000000000000032000000000000000000504200000000000000004E530000000000000000420000000000000073
:4052000000005300000000000000000032000000000000000000504200000000000000005A4F000000000000000042000000000000000000530000000000000000003200E7
:4052400000000000000000005042000000000000000050530000000000000000420000000000000000005300000000000000000032000000000000000000504200000000A0
:4052800000000000504D0000000000000000420000000000000000005300000000000000000032000000000000000000504200000000000000005042000000000000000066
:4052C000420000000000000000005300000000000000000032000000000000000000000000000000000000000000000000000000000000000AD7233C6ABC743E00000000CF
:4053000060E5503D0000C8420000964300000000000000000000000000000000000000000000000067D2DE3C0000F84100000000000000000000000000000000000000002C
:405340000AD7233C6ABC743E0000000060E5503D0000C8420000964300000000000000000000000000000000000000000000000067D2DE3C0000F8410000000000000000D4
:405380000000000000000000000000000AD7233C6ABC743E0000000060E5503D0000C8420000964300000000000000000000000000000000000000000000000067D2DE3CCD
:4053C0000000F84160E5503D6ABC743E708EFF1F0000E02EC05D00001800000000366E010100000000000000000000000000000000000000000000000000000000000000C5
:4054000000000000B0470000000000000000000000000000000000000000000000000000000000000000000000000000000000000000000000000000000000000000000075
:40544000000000008C8CFF1F0000000000000000000000000000000000000000000000000000000000000000000000000000000000000000000000000000000000000000F6
:4054800000000000000000000000000000000000000000000000000000000000000000000000000000000000000000000000000000000000000000000000000000000000EC
:4054C00000000000000000000000000000000000000000000000000000000000000000000000000000000000000000000000000000000000000000000000000000000000AC
:40550000000000000000000000000000000000000000000000000000000000000000000000000000000000000000000000000000000000000000000000000000000000006B
:40554000000000000000000000000000000000000000000000000000000000000000000000000000000000000000000000000000000000000000000000000000000000002B
:020000040003F7
:0200000480007A
:40000000085200400A6400400465004054000140320101405E0201404B0301406E04014044050140540601404B0701404E080140400901405F0A01404F0B0140600C014018
:40004000450D01404F0E01402E0F0140531401404F1501405E16014042170140701801403D1901400E1A01404B1B0140094001400E4101400A420140064301400A45014004
:4000800005460140074801400F490140044C01400D4D014008500140025101400008010C082010201120198078017901810F826F830D870F880D890D8A388B6F8C0F8D0D45
:4000C000840F860D876F8A72000802010301040B05300604070809300D020F0411381504160F1702180C19281A021B101D021E201F042007211825022610270429102B20E9
:400100002C0C2E012F08302031013306340F353836103B084003464049FF4A074BFF4C404D204EF04F055008580459045A045C115D025F01604061A8624063208001860482
:400140008E0293029404950299029E04A401AB01B202B302B404B601B701B880BE10BF04D40FD604D804D904DB04DC11DD10DF01000201060504064208040A050B200E2265
:4001800010511620184019401A051B201C081E222004220A272128542A082B022E20300131403208332035043611384039154210508051105C8A5F2067408202844887405D
:4001C000C0BCC2A7C42DCA2FCCEFCE0FD002D6F0D880E0010301040406080B020E011102140118081A041C041E081F082304260229012C042E08310432013308340C3501C6
:40020000360237023A203E043F504060410249FF4AFF4BFF4DA04F045018540F580459045A045B045C115D115F05604062C06440654066C068C06AC06CC06EC087048A02B0
:400240008F029B01A501A603AB04B201B304B502B602B701BF04C060C103C5D1C702C813C9FFCAFFCBFFCDAFCE0FCF04D018D405D804D904DA04DB04DC11DD11DF01E04048
:40028000E2C0E440E540E6C0E8C0EAC0ECC0EEC00120060207100E2A10201610174019081A021E0B1F18200822442404275229282E012F04302037413A843E203F124104E3
:4002C0004604482049224D205104520459025A885C045F5262406302660867047E808B48912092049505961097209B019C419D049E62A088A210A401A808AA08AC84B002AF
:40030000B116B208B404B702C0A2C2E0C4A4CAA6CC94CEAAD022D224D6FBD860DE80E210E608EA01EE0104030644071C0A080B081501170E1873191C1A0C1B031F0322559D
:40034000242A25012644271628732A043230331A340F350F364038083A203B283E444062410549FF4AFF4BFF4DA04F0150185280580459045A045B045C225D115F016040D2
:40038000628064406540668068406A806C406D206E808101850C8610880189018A028C018E028F10910C9402960198019A0A9D079E04A50AB008B204B301B410B510B6030F
:4003C000B70EB988BA80BF04C062C105C53CC620C74EC83BC9FFCAFFCBFFCDAFCE07CF01D018D804D904DA04DC11DD01DF01E040E280E440E540E680E840EA80EC40ED2071
:40040000EE80002002140440072808200A080D200E200F021080122819401A181C421D201F0422282680271828202D043080322833403441368039203A043C403E243F02E6
:400440004310471048084A014B404C084F46562A7002810482018F209120920495059610970C9C419D249EAAA088A204A401A680A701AE11B004C0E6C2E2C40ECA42CC9EC4
:40048000CEF6D024D23CE410E84001940360059E076008450A0A0C0C0E431530167017C9181A1A251D732077247F25FD27022A802B0F2C132DCF2E2C2F3032F033FF340FEE
:4004C0003F04580459045C015F01800E850986018710881089108A028C188D148E04921E9416952C960897119818991C9A029B229F03A530A70CAD40AE20B01EB360B420BC
:40050000B601B71FB908C031C106C6CBC70EC81CC9FFCAFFCBFFCEF0CF44D00CD401D804D904DA04DB04DC21DD22DF01E6C0EA40EB020048028003040440070409010A0447
:400540000B200D080E0410021440150416021710184019201A011B021D0C1F14202021042240271028222C012D042F16326836843704388039283C023D023E06402243400D
:400580004A0850485210580859505B0161106210824088088901912092049505986099409B409C019D249E90A003A2ACA410AC01AE10C0CFC26EC4F1CA7ACC5ECECED00A4A
:4005C000D204D60FE202E4810301050A0F011002110C150618011B10220A250C26042A043008310132043402350E3601371039203E503F01401545EC4602480749FF4AFF25
:400600004BFF4F015018528054015604580459045A045B045C115F016040624064406540668068806A806C806E80811883048510870290029516960197089802990E9D0147
:40064000A201A31EA701A802A918AB02B11EB202B401B701BE10D405D804D904DB04DC12DD10DF010A540C200E801110124014101501171018141D081E881F802080210128
:4006800022402580278828642F103190320434203620371939063C023D083E023F8046024D084F81574059015A805B045D085F8164807401834085088B80910592089404AF
:4006C0009602985499109C809D40A010A440A604C25EC47ACA47CCEECED3D010D210D6DBD880E280003002C90A0F0C9E0E60147318FD1A022494266028CF2A3032FF3E04B9
:400700004026410349FF4AFF4BFF4DA04F015018541858045A045B045D215F016040628064406540668068406A806C406D206E808006850B870488188C308D0C8F019430D8
:40074000970F98289E05A108A202A301A507A90CAA02AB02B001B204B30FB438B602B820BE44C023C106C530C6C2C74EC83EC9FFCAFFCBFFCDAFCE07CF01D018D280D40F43
:40078000D804D904DA04DB04DC11DD11DF05E040E280E440E540E680E840EA80EC40ED20EE800098012002150380051106010A080B240C040F06100411041208130816044C
:4007C00017011A201C021D111F19260828402B802C042F9037083C803F044010412045204610480549804C804D21566857015A025E0A5F5060046140662876807F108902CD
:400800008A448B58930496209722981099209B099C849D929EC1A014A120A201A380A480AD40B010B504C0DBC2E6C456CAE0CC40CE50D066D224D6F1D86CDE40E860EC08C7
:40084000020110081301140119011E031F02220C2D013004310232023301340136083E503F044010410649FF4AFF4BFF4DA04F0450185280540F5604580459045A045B044A
:400880005C115D115F01604062C06440654066C068C06AC06CC06EC08208850186188B018C058E029403970298069A019E019F02A002A204A406A807B007B302B410B6088D
:4008C000B701BF04C010C106C5D0C610C702C81AC9FFCAFFCBFFCDAFCE0FCF04D018D405D804D904DA04DB04DC11DD11DF01E040E2C0E440E540E6C0E8C0EAC0ECC0EEC0FA
:4009000002110340068008080A010B240D020E210F021004110113081640180819401B011D221E22224427602D012F81320833403520378138284340474049014A084E08B6
:400940005010521859015A885C085D825F206440778084408C809304962099209B099C049D149E41A014A380A480AB0CB348B404B580C01DC2B7C41ECA10CCBACE06D0187C
:40098000D224D6FBD880E210ECC0000801A003500501070A09F00A0E0C020D300E040FC01002110112041302150216101701180E19701D011E011F02215023A0240E2704E8
:4009C00029C02A082B30300131083303341E35F037043B08580459045C115F01800282018304860888048C018D048E029001920293019C049D08A004A108A801AA12AF06AD
:400A0000B010B102B208B301B404B504B603B708B820B980BA80BE10BF10D280D804D904DB04DC11DD10DF010001012002010409051007020A220B840CC00E401014150101
:400A40001640172019201A801C091E401F88202021182201230624402725280429042B802D813010311832413440370239203A053B803C4274018204C0FBC29FC456CA97B9
:400A8000CC9FCE9F011C02040408052006100704080809020A100C050F0211021201173C1B401C081E101F012010212C220823102540260229302A012B042D302F0830016D
:400AC00031013202333C34183502360437403A203E413F505280540F5604580459045B045C115D105F0183018B019601AA02B202B401B701BB20BF40C013C5ECC620C80B19
:400B0000C9FFCAFFCBFFCF01D018D280D804D904DA04DB04DC21DF01E040E240E440E540E680E880EA80EC80EE80006802800A810B400E2010A011301720180419541A4067
:400B40001C281E20204021082212231224082640280129052B083020328A380439103B413C023E20462047404D014F045620580459015A60608072807401774080048320A3
:400B80008480880189088C849281930195019714980499019D509E809F02A020A110A288A308A404A640AA04AB01AE08B404B501C00FC229C44ECA0FCC0FCEAFD050D60FE9
:400BC000D801E401E604EE021E0123012801330134013E104056410249FF4AFF4BFF4DA04F01501854015604580459045A045B045C105D015F0160406280644065406680E1
:400C000068406A806C406D206E80872089B48B4A9202940295F8970699019A069D01A001A1DEA320A401A56EA801A9C6AB18AD4AAF94B204B3E0B401B51EB602B701B8204D
:400C4000B980BE50C056C102C532C6C4C70EC81FC9FFCAFFCBFFCDAFCE07CF01D018D280D40FD804D904DA04DB04DC11DD11DF05E040E280E440E540E680E840EA80EC405A
:400C8000ED20EE800A580C8010A41204172019201A101B401E04200421042244272029112A442C8030B0330839083B1042084510460848A049204A024D204E024F8051088A
:400CC0005290581059405A045B025D015E805F0461086210648072407804864887088880920198049E80A404AC04B008B301C28EC44ECA8FCC0ECE06D024D23CD6DFD886D6
:400D0000DE02E228E602EA0804480601087709300BC90C100DFD0E2F0F02107B119E1204136015731670180C1A421D941F60201C222125CF27302A802B0F32F033FF340FD6
:400D40003F044030410649FF4AFF4BFF4DA04F045018580459045A045C015D015F01604062C06440654066C068C06AC06CC06EC0840C86038760891F8A028C038D608E0C9D
:400D8000900F940C9554970999619B069C089D60A00CA203A360A404A760A92AAB91AD1FB160B201B318B40EB507B780B808BA20C030C106C5D0C610C702C81AC9FFCAFF15
:400DC000CBFFCDAFCE0FCF04D018D804D904DA04DC22DD01DF01E040E2C0E440E540E6C0E8C0EAC0ECC0EEC000540204058006200708080209080A810E280F80106017213E
:400E000018041A101E281F182295272028402A842B042F18325435803709384439103C203E203F804020443049014A084E08522884108710901095109656972098109B48CE
:400E40009D419E409F05A010A504A620AF08B020C0E7C27DC45CCA6FCCDECE3ED042D224EC20960197029B029D01A601B101B502B601B802BE41BF11D804D904DF010054BB
:400E8000021008420A2A0E100F1010A0114013201508184019101A101D401F01200122012501270428222A123295341036083740386A40714A014B1051045240591069104F
:400EC0006A4470B47108720373208002820183018B018C018DC18F049014922894409510964598109B409C429DC09E409F05A288A420A508A704AF08B284B504B740C00780
:400F0000C22FC42FCA0FCC7FCE0FD00BD20CD604E460EC4030103204364037023B408640CCF0CE10E6400A040E1051015C4086048F02960897409C109F02C260D480D62040
:400F4000E6108E109210944097409C10AD01AE04B440E840EE4086028B40944097409C10E24000100520630266029410B410C003D602D801EA08AF01B520B602E802EA0885
:400F80005C408B40944097C09C10A202D62007040B806202804083048410944097809C10A202C080C210D840E080E66008105D02C202D60112801902750478108D048E801A
:400FC00098109D02C408C608DE06E008E202000708060A060C070E0210071A071C0600FF010300008080000040000000000400401F1820000008230033070C183F1C0002FA
:4010000003000040020000203C00030408100000040000030C1C0001011F00000F1F2C001000006000000202000010404305060001000E0C14FFFFFF62A0F0410C000000C9
:401040000000021104040404222200010000000000004002001030100010101200000000000000000000000000000000600E0E000C0000008000408080008000000000007C
:401080000001010001000000402B2B00200000000CE2E2006000000018C0C0008000000000000000000000000000000000000000000000000000000000000000000000002F
:4010C00000000000000000000000000000000000000000000000000000000000000000000000000000000000000000000000000000000000000000000000000000000000F0
:4011000000000000000000000000000000000000000000000000000000000000000000000000000000000000000000000000000000000000000000000000000000000000AF
:40114000000000000000000000000000000000000000000000000000000000000000000000000000000000000000000000000000000000000000000000000000000000006F
:40118000000000000000000000000000000000000000000000000000000000000000000000000000000000000000000000000000000000000000000000000000000000002F
:0200000490006A
:0400000000004005B7
:0200000490105A
:04000000BC90ACAF55
:0200000490303A
:02000000F0BB53
:0200000490402A
:4000000000000000000000000000000000000000000000000000000000000000000000000000000000000000000000000000000000000000000000000000000000000000C0
:400040000000000000000000000000000000000000000000000000000000000000000000000000000000000000000000000000000000000000000000000000000000000080
:400080000000000000000000000000000000000000000000000000000000000000000000000000000000000000000000000000000000000000000000000000000000000040
:4000C0000000000000000000000000000000000000000000000000000000000000000000000000000000000000000000000000000000000000000000000000000000000000
:0200000490501A
:0C00000000012E16106900012E380124AA
:00000001FF